:020000020000FC
:2000000000400034086008140800683A00000000000000000000000000000000000000003E
:2000080006C00074DEC0001406800074D68974140080003410AA311400C0003418EA5814F6
:2000100010C00326100000151080010410FFFD360008D2800008E140003FFF06DEFFF6043D
:20001800DFC00915DF000815DF000804008004B4108D1584E0BFFF15009E26F410AF3784D1
:20002000E0BFFE1500804CF410915DC4E0BFFD1500A66F3410B37FC4E0BFFC150086B03472
:2000280010BDA744E0BFFB150096A53410BA02C4E0BFFA150100007421287A0400082FC071
:20003000E0FFFE17008000741084010410C00035E0FFFF17008000741084020410C00035A2
:20003800E0FFFC17008000741084030410C00035E0FFFD17008000741084040410C000359A
:2000400000C0007418C4000400800044188000350080007410840004108000371080008C8C
:200048001005003A103FFA1E008000741084050410800037E0BFF91500800074108406044B
:2000500010800037E0BFF815010000742128850400082FC00100007421288D04E17FFB171E
:20005800E1BFFA1700081D400100007421289604E17FF817E1BFF91700081D40E0FFF817A8
:20006000E0BFFB171880071EE0FFF917E0BFFA171880041E0100007421289F0400082FC061
:2000680000000306010000742128A80400082FC0010000742128AE0400082FC00005883AE0
:20007000E037883ADFC00117DF000017DEC00204F800283ADEFFFB04DFC00115D94002152B
:20007800D9800315D9C004150080007410A9740411400017D8800204D880001529C00217EB
:20008000100D883A0080007410A29C04200B883A388001153809883A0008A4C0DFC001175A
:20008800DEC00504F800283ADEFFFC04DFC00115D9800215D9C0031522000217D88002040B
:20009000D8800015100F883A0080007410A29C04280D883A40800115400B883A00083B009F
:20009800DFC00117DEC00404F800283ADEFFFD04DC0000152021883A2809883ADFC0021516
:2000A000DC4001152823883A0008310080C002170200007442229C04880D883A100F883ABD
:2000A8008009883A180B883A1A000115403EE83A047FFFC48009883A0180007431A8B9041C
:2000B00001C000441440071E00FFFFC41805883ADFC00217DC400117DC000017DEC003048D
:2000B800F800283A8140021728C00117183EE83A0007883A147FF51E003FF30600800074E1
:2000C00010A97404200B883A11000017000826C120800007100005262007883A18C0004404
:2000C80018800007103FFD1E1905C83AF800283ADEFFFB04DC800315DC400215DC00011520
:2000D000DFC004152025883A2823883A3821883AD98000059009883A880B883AD80D883A74
:2000D80001C0004404000B0E88C00117843FFFC4183EE83A103FF72600BFFFC4DFC00417E0
:2000E000DC800317DC400217DC000117DEC00504F800283A0005883ADFC00417DC80031769
:2000E800DC400217DC000117DEC00504F800283ADEFFE304DF001B15DDC01A15DD00171526
:2000F000DC801515DC001315DFC01C15DD801915DD401815DCC01615DC401415D9001015B7
:2000F8002829883AD9C011153025883A0021883AD8000F15D8000E150039883AD800091534
:20010000D8000D15D8000C15D8000B15002F883A9140000301C000449480004429003FCC9E
:200108002100201C213FE0042000152681C035263C002016803FF61E008009442081501E1E
:20011000073FFFC400800284D9C00C15D8000F15D8000E15DF000915D8800D15D8000B15A0
:20011800914000033821883A9480004429003FCC2100201C213FE00401C00044203FEB1E3E
:20012000B805883ADFC01C17DF001B17DDC01A17DD801917DD401817DD001717DCC01617E2
:20012800DC801517DC401417DC001317DEC01D04F800283A0080008480801726008000C444
:2001300080BFD31E2C7FF40488C03FCC0080024410C02136D8C0091718012716D900091795
:20013800014002840008CF001007883A88803FCC1080201C10BFE0041887883AD8C0091587
:20014000003FC30600800C042080B3260080094420812726040000842C7FF40488C03FCC55
:200148000080024410C00A36E000B416E009883A014002840008CF001007883A88803FCCE2
:200150001080201C10BFE00418B9883A003FB00600800B842080A32600801B042080A32608
:20015800D8C009171800A716D8000F1528BFEA0410803FCC00C00804188028361085883A75
:200160001085883A00C0007418E1660410C5883A110000172000683A000086240000861CC4
:200168000000861C0000861C0000861C0000861C0000861C0000861C0000861C0000861C67
:200170000000861C00008850000086380000861C0000861C0000861C0000861C00008638F1
:200178000000861C0000861C0000861C0000861C0000861C000088B80000861C0000861CB9
:200180000000861C000088C80000861C0000879C0000861C0000861C000087940021883A66
:20018800003F7B0600C0040400800044D8C00D15D8000C15D8800B15D8C00E171805003ACC
:2001900010005A1ED8800C171000781ED8801117D8000A151440001711C00104D9C011152F
:2001980088005A26D8C00B17DCC0004405800244182B003ADCC012150000050621000C045E
:2001A000990000059CC0004480000F268023883AD9400D178809883A0008CE00D9000D1784
:2001A800100B883A1021883A0008CF008889C83AB13FF20EA8009F1E21000DC49900000598
:2001B0009CC00044803FF11ED880121798A3C83AD8C009171C4BC83A0140130ED8C00044A4
:2001B800188008049880102E00800C0428FFFFC4988000059900004400C0080ED8C0004407
:2001C000188008042080052E00800C0420800005210000449945883A20BFF81ED8801217F8
:2001C8002027883A20A3C83AD8C00A171C45883AE0A1C83AD8800F17100080261805003A5F
:2001D0001000AE260400A516B805883A0440950E102F883A1461883A00000206BDC0004405
:2001D80085FFAE269CFFFFC498800003A0C00117D9001017D8800005A00B883AD80D883A4D
:2001E00001C00044183EE83A103FF42605FFFFC4003F3B0600C00404D8C00D15D8000C1557
:2001E800D8C00E171805003A103FA626D8C00C171800171ED8C01117D8000A151C40001796
:2001F00019C00104D9C01115883FA61EDCC00044DCC01215003FBE0604000084D9C00F15DC
:2001F800003F0B06040000C4003F090600800044040000C4D8800E15003F05060007883A67
:20020000003F4E0600800044D8800915003F5706D88011171440001710800104D880111577
:2002080088000716D8000A15003F8D06D8C011171C40001718C00104D8C01115883FF90ECC
:20021000008000440463C83AD8800A15003F8406040000448700080ED9001017A00B883A0F
:2002180001800804E1FFFFC400083300103FC71EE5C5883A15FFFFC4D8C01117D900101724
:20022000800F883A18800017A0C00117A00B883AD8800005D80D883A183EE83A103FBB1E35
:20022800D8801117BDC000440021883A10800104D8801115003ED60600800204D8800D1565
:20023000D8000C15003FB606D8C011171CC000179809883A00083100E0A1C83A1023883AF3
:200238000400070ED9001017A00B883A01800804800F883A00083300103FA41EBC2F883A49
:20024000A0C00117D9001017980D883AA00B883A880F883A183EE83A103F9C1ED8801117F8
:20024800BC6F883A0021883A10800104D8801115003EB706210015C4003F510604003B16D3
:20025000D8C00A171805003A103F7F1EA0C00117D900101700800B44D8800005A00B883A81
:20025800D80D883A01C00044183EE83A103F871EB8800044003F75060007883A003EDB0650
:20026000A0C00117D9001017D9400005D80D883AA00B883A183EE83A103F7C1EBDC00044B2
:20026800003E9B06102F883A0021883A003E9806A0C00117D9000005D9001017A00B883A14
:20027000D80D883A800F883A183EE83A103F6F1EBC2F883A0021883A003E8D06D9001017C1
:20027800A00B883A01800C04800F883A00083300103F661EBC05883A003F5406A0C0011775
:20028000D900101700800B44D8800005A00B883AD80D883A01C00044183EE83A103F5B1ED9
:20028800BDC00044043F480E003FEC06D9001017A00B883A01800804800F883A0008330045
:20029000103F521EBC2F883A003FBD060080007410A974042013883A110000172805883AAF
:20029800300F883A480B883A100D883A00083B012880000BDEFFFA04DCC003151080020C2D
:2002A000DC800215DC400115DFC00515DD000415DC0000152825883A2027883A3023883ACC
:2002A800100020262940008F28000F1601C01B0E3821883A05010004000002060400170E5B
:2002B0009140008F880D883A9809883A800F883AA400010E01C100040008B2C088A3883AE3
:2002B80080A1C83A00BFF5169080000B00FFFFC4108010149080000D1805883ADFC00517F1
:2002C000DD000417DCC00317DC800217DC400117DC000017DEC00604F800283A0007883A09
:2002C800003FF50600FFFFC4003FF306DEFFFD04DC00001504000074842A3104DC40011586
:2002D000800000152023883A2809883A300B883A380D883ADFC002150008E8001007883AFE
:2002D80000BFFFC4188006261805883ADFC00217DC400117DC000017DEC00304F800283A03
:2002E00080800017103FF826888000151805883ADFC00217DC400117DC000017DEC00304FA
:2002E800F800283A29001B2E28001A16008000440007883A01C007C40000030619C013269E
:2002F00018C0004428000416294B883A1085883A293FFA3610000D260007883A21400236C6
:2002F8002149C83A1886B03A1004D07A280AD07A103FFA1E300002262005883AF800283A18
:200300001809883A2005883AF800283A0007883A003FF806008000440007883A003FEF06F2
:20030800DEFFFE04DC000015DFC001150021883A20000C16000D883A28000E160008BA400E
:200310001007883A8005003A1000011E00C7C83A1805883ADFC00117DC000017DEC0020410
:20031800F800283A0109C83A04000044000D883A283FF20E014BC83A8021003A003FEF0684
:20032000DEFFFF04DFC00015018000442807883A2000041628000C16DFC00017DEC0010496
:200328000008BA410109C83A28000B16180B883A018000440008BA400085C83ADFC0001774
:20033000DEC00104F800283A014BC83ADFC00017DEC001040008BA410147C83A003FF30684
:20033800000D883A0008BA41018000440008BA4120000A260007883A2080004C1005003AB7
:200340002008D07A1000011E1947883A294B883A203FF91E1805883AF800283A0007883A2C
:200348001805883AF800283ADEFFFE04DFC00115DF000015D839883A0100007421297C04C2
:20035000014000742968C7040180007431A97C040008DA8001000074212008040140007454
:20035800296008040180007431A008040008DA800100007421287A040140007429687A04BC
:200360000180007431A8C7040008DA8000094580000967C0E037883ADFC00117DF000017FE
:20036800DEC00204F800283ADEFFFC04DF000315DF000304E13FFD15E17FFE15E1BFFF1564
:20037000E0FFFE17E0BFFD1718800E2600000A06E0BFFD1710C00017E0BFFE1710C00015B7
:20037800E0BFFE1710800104E0BFFE15E0BFFD1710800104E0BFFD15E0FFFE17E0BFFF17C8
:2003800018BFF31EE037883ADF000017DEC00104F800283ADEFFFD04DFC00215DF00011520
:20038800DF0001040009883A0009004000090380010000742128BA04014000742968BA0451
:200390000180007431A8BA040009770000095B4001000074212586040009DE80D120BE172B
:20039800D160BF17D1A0C017000805C0E0BFFF150100004400092F80E13FFF170009DFC09B
:2003A000DEFFF704DFC00815DF000715DF000704E13FFB15E17FFC15E1BFFD15E0BFFB17C0
:2003A8001004803A1000091EE13FFB17014003040008CF001007883A0080007410A9140441
:2003B0001887883AE0FFFF1500000106E03FFF15E0BFFF17E0BFFA15E0BFFA171005003A3D
:2003B8001000241EE0BFFA1710800217108000CC1005003A10001A1EE0BFFA171080001730
:2003C000108006171005003A1000151EE0BFFA171080001710800617E17FFC17E1BFFD17B3
:2003C800E13FFA17103EE83AE0BFF915E0BFF9171004403A1000071E0008FA40E0FFF91724
:2003D00000C7C83A10C0001500BFFFC4E0BFFE1500000E06E0BFF917E0BFFE1500000B06A5
:2003D8000008FA401007883A0080034418800015000004060008FA401007883A0080144479
:2003E0001880001500BFFFC4E0BFFE15E0BFFE17E037883ADFC00117DF000017DEC002043E
:2003E800F800283ADEFFFD04DFC00215DF000115DF0001040080007410A97B04108000175B
:2003F0001005003A1000061E0080007410A97B0410800017103EE83AE0BFFF15000003066B
:2003F8000080007410AA3104E0BFFF15E0BFFF17E037883ADFC00117DF000017DEC0020470
:20040000F800283ADEFFFD04DFC00215DF000115DF000104E13FFF150009B4400080004420
:200408001001703AE037883ADFC00117DF000017DEC00204F800283ADEFFFE04DFC0011501
:20041000DF000015D839883A010000742128FF0400090680E037883ADFC00117DF0000172F
:20041800DEC00204F800283ADEFFFD04DFC00215DF000115DF000104E13FFF15E13FFF17EF
:20042000014000742969780400094A00E037883ADFC00117DF000017DEC00204F800283A22
:20042800DEFFFA04DFC00515DF000415DF000404E13FFD15E17FFE15E1BFFF15E0BFFD1735
:2004300010800017E0BFFC15E0BFFC1711000A04E0BFFD1711C00217E17FFE17E1BFFF17BC
:2004380000091500E037883ADFC00117DF000017DEC00204F800283ADEFFFA04DFC005156E
:20044000DF000415DF000404E13FFD15E17FFE15E1BFFF15E0BFFD1710800017E0BFFC155A
:20044800E0BFFC1711000A04E0BFFD1711C00217E17FFE17E1BFFF1700092540E037883AB4
:20045000DFC00117DF000017DEC00204F800283ADEFFF604DF000915DF000904E13FFB15F1
:20045800E17FFC15E1BFFD15E1FFFE15E0BFFB1710800017E0BFFA15E0BFFC17E0BFF91509
:20046000E0BFFD171007883AE0BFFC1710C5883AE0BFF81500001606E0BFFA171080003768
:20046800E0BFF715E0BFF71710A0000C1005003A1000081EE0BFF7171007883AE0BFF917A6
:2004700010C00005E0BFF91710800044E0BFF91500000706E0FFF917E0BFFC171880071EFC
:20047800E0BFFE171090000C1004C03A1000031EE0FFF917E0BFF81718BFE736E0FFF91745
:20048000E0BFFC1718800526E0FFF917E0BFFC171887C83AE0FFFF1500000906E0BFFE17EF
:200488001090000C1005003A1000031E00BFFD44E0BFFF150000020600BFFEC4E0BFFF1539
:20049000E0BFFF17E037883ADF000017DEC00104F800283ADEFFF904DF000615DF0006040E
:20049800E13FFC15E17FFD15E1BFFE15E1FFFF15E0BFFC1710800017E0BFFB15E0BFFE173E
:2004A0001007883AE0BFFD1710C5883AE0BFFA1500001106E0BFFB17108001041080003747
:2004A80010BFFFEC1005003A10000B1EE13FFB17E0BFFD171080000310C03FCC18C0201C8B
:2004B00018FFE004E0BFFD1710800044E0BFFD152005883A10C00035E0FFFD17E0BFFA176A
:2004B80018BFEC36E0BFFE17E037883ADF000017DEC00104F800283ADEFFF804DFC0071517
:2004C000DF000615DF000604E13FFC15E0BFFC171004803A1000091EE13FFC1701400304D6
:2004C8000008CF001007883A0080007410A914041887883AE0FFFF1500000106E03FFF1511
:2004D000E0BFFF17E0BFFB15E0BFFB171005003A10001D1EE0BFFB1710800017108004175A
:2004D8001005003A1000071EE0BFFB171080001710800417E13FFB17103EE83AE0BFFE1529
:2004E00000000106E03FFE15E0BFFE17E0BFFA15E13FFC170009ACC0E0BFFA171004403A7B
:2004E8001000071E00093F80E0FFFA1700C7C83A10C0001500BFFFC4E0BFFD150000080618
:2004F000E03FFD150000060600093F801007883A008014441880001500BFFFC4E0BFFD1556
:2004F800E0BFFD17E037883ADFC00117DF000017DEC00204F800283ADEFFFD04DFC0021519
:20050000DF000115DF0001040080007410A97B04108000171005003A1000061E00800074B8
:2005080010A97B0410800017103EE83AE0BFFF15000003060080007410AA3104E0BFFF1532
:20051000E0BFFF17E037883ADFC00117DF000017DEC00204F800283ADEFFFF04DF000015BE
:20051800D839883AE037883ADF000017DEC00104F800283ADEFFFC04DF000315DF0003046A
:20052000E13FFD15E17FFE15E1BFFF15E0BFFF17E037883ADF000017DEC00104F800283AE1
:20052800DEFFF904DFC00615DF000515DF000504E13FFD15E17FFE15E0BFFD171005003A97
:200530001000041EE0BFFD17108002171004C03A1000071E000955401007883A008005845A
:200538001880001500BFFA84E0BFFF1500001306E0FFFD17E0BFFE17E0BFFB15E0FFFC15A7
:20054000E0FFFC17E0BFFB1718800115E0BFFB1710C00017E0BFFC1710C00015E0BFFB176A
:2005480010C00017E0BFFC1718800115E0FFFB17E0BFFC1718800015E03FFF15E0BFFF1714
:20055000E037883ADFC00117DF000017DEC00204F800283ADEFFFD04DFC00215DF0001157E
:20055800DF0001040080007410A97B04108000171005003A1000061E0080007410A97B041D
:2005600010800017103EE83AE0BFFF15000003060080007410AA3104E0BFFF15E0BFFF175D
:20056800E037883ADFC00117DF000017DEC00204F800283ADEFFFD04DFC00215DF00011566
:20057000DF00010400BFFF0400C0007418E87A041885883AE0BFFF1500000606E0BFFF1740
:2005780010800017103EE83AE0BFFF1710BFFF04E0BFFF15E0FFFF170080007410A87904F4
:2005800018BFF62EE037883ADFC00117DF000017DEC00204F800283ADEFFFD04DFC0021548
:20058800DF000115DF00010400BFFF0400C0007418E87A041885883AE0BFFF1500000606E8
:20059000E0BFFF1710800017103EE83AE0BFFF1710BFFF04E0BFFF15E0FFFF17008000745C
:2005980010A87A0418BFF62EE037883ADFC00117DF000017DEC00204F800283ADEFFFF04AE
:2005A000DF000015D839883AE037883ADF000017DEC00104F800283ADEFFF804DFC0071514
:2005A800DF000615DC000515DF000504E13FFC15E17FFD15E1BFFE15E1FFFF15E13FFD17DD
:2005B000E17FFE17E1BFFF1700098E00E0BFFB15E0BFFB171004803A10001F1EE13FFB17BC
:2005B8000400007484291404014003040008CF001405883A10C00017E0BFFC1710C000156E
:2005C000E13FFB170400007484291404014003040008CF001405883A1080010410C0001736
:2005C800E0BFFC1710C00115E13FFB170400007484291404014003040008CF001405883A12
:2005D0001080020410C00017E0BFFC1710C00215E13FFB170009ACC0E037883ADFC00217BD
:2005D800DF000117DC000017DEC00304F800283ADEFFFB04DFC00415DF000315DF000304A9
:2005E000E13FFD15E17FFE15E1BFFF150100007421291704E17FFD170180004401C07FC48B
:2005E800000969800100007421291404E17FFE17000D883A01C07FC400096980010000747B
:2005F00021291A04E17FFF170180004401C07FC400096980E037883ADFC00117DF000017CC
:2005F800DEC00204F800283ADEFFFA04DFC00515DF000415DC000315DF000304E13FFE154C
:20060000E0BFFE171080021710D00034E0BFFE1710C00215E03FFD1500002306E13FFD1740
:200608000400007484291404014003040008CF001405883A10C00017E0BFFE171080001759
:200610001880161EE13FFD170400007484291404014003040008CF001405883A10800204FD
:20061800108000171004403A10000C1EE13FFD17014003040008CF001007883A0080007433
:2006200010A914041887883AE0BFFE171880032600BFFCC4E0BFFF1500000A06E0BFFD171E
:2006280010800044E0BFFD150080007410A97A04108000171007883AE0BFFD1718BFD72EF3
:20063000E03FFF15E0BFFF17E037883ADFC00217DF000117DC000017DEC00304F800283A48
:20063800DEFFF404DFC00B15DF000A15DF000A04E13FFB15E17FFC15E1BFFD1500BFFFC44E
:20064000E0BFF81500BFFB44E0BFF715E03FF615E13FFB1701400074296978040009B64027
:20064800E0BFFA15E0BFFA171004C03A1000051EE13FFB170009BF80E0BFFA150080004407
:20065000E0BFF615E0BFFA171005003A1000311EE13FFA170009D180E0BFF815E0BFF8179D
:200658001004403A1000031EE0BFF817E0BFF71500002A06E13FF817014003040008CF00EC
:200660001007883A0080007410A914041885883AE0BFF915E0FFFC170090003410BFFFC488
:200668001886703AE0BFF91710C00215E0BFF6171004C03A1000061EE13FF91700097E806F
:20067000E0BFF715E0BFF7171004803A1000131EE0BFFA17108003171005003A1000091E23
:20067800E0BFFA1710800317E13FF917E17FFB17E1BFFC17E1FFFD17103EE83AE0BFFF159C
:2006800000000106E03FFF15E0BFFF17E0BFF7150000020600BFFB44E0BFF715E0BFF71762
:200688001004403A1000091EE13FF8170009ACC00009A6C0E0FFF71700C7C83A10C00015DF
:2006900000BFFFC4E0BFFE1500000206E0BFF817E0BFFE15E0BFFE17E037883ADFC001176A
:20069800DF000017DEC00204F800283ADEFFFD04DFC00215DF000115DF00010400800074ED
:2006A00010A97B04108000171005003A1000061E0080007410A97B0410800017103EE83A95
:2006A800E0BFFF15000003060080007410AA3104E0BFFF15E0BFFF17E037883ADFC001179B
:2006B000DF000017DEC00204F800283ADEFFFC04DFC00315DF000215DC000115DF000104D6
:2006B800E13FFF15E0BFFF17108000D010000F1EE13FFF17040000748429140401400304E1
:2006C0000008CF001405883A1080020410000015E13FFF17040000748429140401400304F2
:2006C8000008CF001405883A10000015E037883ADFC00217DF000117DC000017DEC003041B
:2006D000F800283ADEFFFF04DF000015D839883A000170FAE037883ADF000017DEC001042C
:2006D800F800283ADEFFF904DFC00615DF000515DF000504E13FFD15E17FFE15E0BFFE17DA
:2006E00010800017E0BFFC15E13FFD170008310010800044E0BFFB1500000D06E0BFFC17EE
:2006E80011000217E1BFFB17E17FFD170009E1C01004C03A1000031EE0BFFC17E0BFFF1554
:2006F00000000706E0BFFC1710800017E0BFFC15E0FFFE17E0BFFC1710FFF01EE03FFF15DE
:2006F800E0BFFF17E037883ADFC00117DF000017DEC00204F800283ADEFFFA04DFC0051515
:20070000DF000415DF000404E13FFE150080007410A9760410800017E0BFFD15000033060F
:20070800E0BFFD171100021700083100E0BFFC15E0BFFD1710C00217E0BFFC171885883A5E
:2007100010BFFFC41080000310803FCC1080201C10BFE00410800BD81000031EE0BFFC1734
:2007180010BFFFC4E0BFFC15E0BFFC171007883AE0BFFE171885883A1080000310803FCCB3
:200720001080201C10BFE00410800BE010000A1EE0BFFC171007883AE0BFFE171885883AE9
:200728001080000310803FCC1080201C10BFE0041004C03A10000A1EE0BFFD1711000217E1
:20073000E1BFFC17E17FFE170009E1C01004C03A1000031EE0BFFD17E0BFFF150000080624
:20073800E0BFFD1710800017E0BFFD1500C0007418E97604E0BFFD1710FFC91EE03FFF150B
:20074000E0BFFF17E037883ADFC00117DF000017DEC00204F800283ADEFFFA04DFC00515CC
:20074800DF000415DC000315DF000304E13FFF1500BFFA04E0BFFD15E03FFE1500002006C5
:20075000E13FFE170400007484291404014003040008CF001405883A108000171004C03A68
:200758001000141EE13FFE170400007484291404014003040008CF001407883AE0BFFF171C
:20076000188000150080007410A97A0410C00017E0BFFE171880040E00C0007418E97A04A9
:20076800E0BFFE1718800015E0BFFE17E0BFFD1500000606E0BFFE1710800044E0BFFE1565
:20077000E0BFFE1710800810103FDD1EE0BFFD17E037883ADFC00217DF000117DC00001795
:20077800DEC00304F800283A200B883A000D883A0009883A000F883A0009E581DEFFFE04BC
:20078000DC400015000B883A2023883ADFC001150009FC808809883A000A1C4031FFFFC470
:200788003000061E00000A0639FFFFC400BFFFC421000044294000443880052620C0000398
:200790002880000318BFF8261885C83AF800283A0005883AF800283ADEFFF90400800074C1
:2007980010A97504DC40011514400017DC000015DD4005158C000C17DD000415DCC00315F1
:2007A000DC800215DFC006152025883A282B883A3029883A3827883A80002626814001170F
:2007A800008007C4114037169000202681802217300029268140011700C000443100401754
:2007B0001946983A2945883A1085883A1185883A20C8B03A14C02015150000150080008410
:2007B80031004015908018262945883A1085883A1405883A28C000440009883A1540021588
:2007C00080C001152005883ADFC00617DD400517DD000417DCC00317DC800217DC40011790
:2007C800DC000017DEC00704F800283A81400117003FED060080007410AA35041021883A36
:2007D00088800C15003FD5063080411710C4B03A30804115003FE406008000341080000489
:2007D80010000B2601004204103EE83A10000826100D883A100040151000411580802215EA
:2007E000003FCC0600800034108000041000021E013FFFC4003FDB0601002304103EE83AB5
:2007E8001007883A103FFA2688800C171821883A180001151880001588C00C15903FDB266F
:2007F000003FBA06F800283ADEFFF3040080007410A97504DF000B151700001700800034B5
:2007F800108000041005003AD8800215E0800C04DD800915DD400815DFC00C15DDC00A15EE
:20080000DD000715DCC00615DC800515DC400415DC000315282D883AD9000115D880001516
:20080800282B003AE4400C1788001226DDC00017888001178C802217143FFFC480000B166C
:200810009027003AA800171E9800051E8409883A2105883A1485883A10C02017B0C01226FE
:20081800843FFFC400BFFFC480BFF61ED880021710003226DFC00C17DF000B17DDC00A170B
:20082000DD800917DD400817DD000717DCC00617DC800517DC400417DC000317DEC00D04F7
:20082800F800283A8409883A88C001172105883A1445883A18FFFFC4118002171C001826C6
:2008300010000215303FE6268D0001179800121E00C000441C06983A908040171884703AF4
:2008380010000D26908041171884703A10000E1E2105883A1485883A11400017D9000117D7
:20084000303EE83A88800117A0BFC61EB8800017147FD326003FC306303EE83A003FF906F4
:200848008C000115003FE7062105883A1485883A11000017303EE83A003FF2068880011770
:2008500010000B1E8900001720000A26B9000015900002269009883A000000008809883A2B
:2008580000000000BC400017883FB11E003FC10689000017882F883A2023883A883FAC1E22
:20086000003FBC06DEFFFD04DF000215DF000204E13FFF15E0BFFF17E0BFFE15E0BFFE176F
:200868001005003A1000021E002AF07000000106002AF0B0E037883ADF000017DEC0010424
:20087000F800283ADEFFFD04DFC00215DF000115DF000104E13FFF15E13FFF17000A1840D5
:20087800003FFF0600009FC464616F4C20676E6969616C507865746E6E612074654B2064FF
:200880006E69207968206F74776472612E65726100002E2E2D2D2D0A524556204349464954
:200888004F4954414552204E544C55532D2D20530000002D6570784564657463706943206E
:20089000747265683A74786525783020586C38306C38302500000A58647261486572617768
:2008980070694320747265683A74786525783020586C38306C38302500000A583E3E3E0A8E
:2008A000415453203A535554435553205353454341502820444553533C3C20290000003CBC
:2008A8003E3E3E0A415453203A535554494146202044454C003C3C3C3D3D3D3D3D3D3D3DAD
:2008B0003D3D3D3D3D3D3D3D3D3D3D3D3D3D3D3D3D3D3D3D3D3D3D3D3D3D3D3D3D3D3D3D88
:2008B80000003D3D0000000A7665642F61746A2F61755F67305F7472000000007665642F41
:2008C00061746A2F61755F67305F7472000000007665642F6C756E2F0000006C0000000041
:2008C800000000000000000000000000000000000000000000000000000000000000000010
:2008D000000000000000000000000000000000000000000000000000000000000000000008
:2008D800000000000000000000000000000000000000000000000000000000000000000000
:2008E0000000000000000000000000000000000000000000000000000000000000000000F8
:2008E8000000000000000000000000000000000000000000000000000000000000000000F0
:2008F0000000000000000000000000000000000000000000000000000000000000000000E8
:2008F8000000000000000000000000000000000000000000000000000000000000000000E0
:200900000000000000000000000000000000000000000000000000000000000000000000D7
:200908000000000000000000000000000000000000000000000000000000000000000000CF
:200910000000000000000000000000000000000000000000000000000000000000000000C7
:200918000000000000000000000000000000000000000000000000000000000000000000BF
:200920000000000000000000000000000000000000000000000000000000000000000000B7
:200928000000000000000000000000000000000000000000000000000000000000000000AF
:200930000000000000000000000000000000000000000000000000000000000000000000A7
:2009380000000000000000000000000000000000000000000000000000000000000000009F
:20094000000000000000000000000000000000000000000000000000000000000000000097
:2009480000000000000000000000000000000000000000000000000000000000000000008F
:20095000000000000000000000000000000000000000000000000000000000000000000087
:2009580000000000000000000000000000000000000000000000000000000000000000007F
:20096000000000000000000000000000000000000000000000000000000000000000000077
:2009680000000000000000000000000000000000000000000000000000000000000000006F
:20097000000000000000000000000000000000000000000000000000000000000000000067
:2009780000000000000000000000000000000000000000000000A3DC0000A3E40000A3ECCA
:20098000000000000000000000000000000000000000000000000000000000000000000057
:2009880000000000000000000000000000000000000000000000000000000000000000004F
:20099000000000000000000000000000000000000000000000000000000000000000000047
:2009980000000000000000000000000000000000000000000000000000000000000000003F
:2009A000000000000000000000000000000000000000000000000000000000000000000037
:2009A8000000000000000000000000000000000000000004000000000001000A0000000020
:2009B0000002000A00000000000000000000000000000000000000000000A2FC000000007D
:2009B80000000000000090A0000090F8000000000000000000000000000110280000A5E0A9
:2009C0000000A5E00000A310000000000000000000000000000094740000000000000000D7
:2009C800000000000000A42800000000000000000000A42800000000000000000000A428AB
:2009D000000000000000000000000000000000000000000000000000000000000000000007
:2009D8000000000000000000000000000000000000000000000000000000000000000000FF
:2009E0000000000000000000000000000000000000000000000000000000000000000000F7
:2009E8000000000000000000000000000000000000000000000000000000000000000000EF
:2009F0000000000000000000000000000000000000000000000000000000000000000000E7
:2009F8000000000000000000000000000000000000000000000000000000000000000000DF
:200A00000000000000000000000000000000000000000000000000000000000000000000D6
:200A08000000000000000000000000000000000000000000000000000000000000000000CE
:200A10000000000000000000000000000000000000000000000000000000000000000000C6
:200A18000000000000000000000000000000000000000000000000000000000000000000BE
:200A20000000000000000000000000000000000000000000000000000000000000000000B6
:200A2800000000000000A31C0000A31C0000A5D80000A5D80000A4280000A428FFFFFFFFA2
:200A30000000000000000000000000000000000000000000000000000000000000000000A6
:200A380000000000000000000000000000000000000000000000000000000000000000009E
:200A4000000000000000000000000000000000000000000000000000000000000000000096
:200A480000000000000000000000000000000000000000000000000000000000000000008E
:00000001FF
